:0B000300C0F9A4B0999282F88090012F
:07000E0002090000010800D7
:10001D00758915E4F58CF58A758D4CF58BD28CD2DE
:10002D008E75A88830A006D2A1C2A28004C2A1D22A
:10003D00A2E4F590AE09AF0AFC7D64316074032F24
:10004D00F58274003EF583E493F580759001E4FA32
:10005D00FB0BBB00010AEB64644A70F5E4F590AE4E
:10006D0009AF0AFC7D6431607E007F0ACFCDCFCE13
:10007D00CCCE316074032FF58274003EF583E4938A
:10008D00F580759002E4FAFB0BBB00010AEB64648A
:10009D004A70F5E4F590AE09AF0AFC7D0A31607443
:1000AD00032DF58274003CF583E493F5807590047F
:1000BD00E4FAFBC3EB9464EA64809480400201315E
:0700CD000BBB00010A80ECEF
:02001B0021EBD7
:1001EB00C0E0C0F0C0D075D000C000C004C005C0D6
:1001FB0006C007758D4C758B000508E508641470F7
:10020B001FF508AF8CEFAD8AF509EDF50AAE09FFC6
:10021B007C007D0431608E098F0A758C00758A0015
:10022B00D007D006D005D004D000D0D0D0F0D0E08D
:01023B003290
:030000000200D427
:0C00D400787FE4F6D8FD75810A02011B5C
:10016000C2D5EC30E709B2D5E4C39DFDE49CFCEEBA
:1001700030E715B2D5E4C39FFFE49EFE120196C39B
:10018000E49DFDE49CFC800312019630D507C3E496
:060190009FFFE49EFE2229
:1000E00002001DE493A3F8E493A34003F68001F219
:1000F00008DFF48029E493A3F85407240CC8C33321
:10010000C4540F4420C8834004F456800146F6DFEF
:10011000E4800B010204081020408090000EE47E71
:10012000019360BCA3FF543F30E509541FFEE493E4
:10013000A360010ECF54C025E060A840B8E493A3AB
:10014000FAE493A3F8E493A3C8C582C8CAC583CAD6
:10015000F0A3C8C582C8CAC583CADFE9DEE780BE8E
:0100150000EA
:10019600BC000BBE0029EF8DF084FFADF022E4CC4D
:1001A600F875F008EF2FFFEE33FEEC33FCEE9DEC16
:1001B600984005FCEE9DFE0FD5F0E9E4CEFD22ED5C
:1001C600F8F5F0EE8420D21CFEADF075F008EF2FA6
:1001D600FFED33FD4007985006D5F0F222C398FD97
:0501E6000FD5F0EA2234
:00000001FF
