:100113000F087777772E77696E647761792E636E30
:1001230000101757656C636F6D6520746F20796FCE
:0301330075210033
:10015900316F7B007A00790831377F0A31857F64F6
:060169007E00110380EC92
:10016F00759850758920E4F587758DFD758BFDD2D7
:06017F008ED2ACD2AF22CB
:080185008F993099FDD29922F7
:100137008B2A8A2B892CAB2AAA2BA92C11E86011B0
:10014700052CE52C7002052B14F911E8FF31858089
:02015700E5229F
:10000300D3EF9400EE9400400F7DFADDFE7DF9DD21
:09001300FEEF1F70EB1E80E822D5
:0200230001B129
:1000B100C0E0C083C082C0D075D000C001C002C002
:1000C10003309814C298AB270529E529AA287002A4
:1000D100052814F9E5993101D003D002D001D0D01F
:0700E100D082D083D0E03291
:03000000020025D6
:0C002500787FE4F6D8FD75812C02006C99
:1000E800BB010689828A83E0225002E722BBFE0216
:0900F800E32289828A83E4932249
:10010100BB010689828A83F0225002F722BBFE01DD
:02011100F322D7
:10003100020159E493A3F8E493A34003F68001F28B
:1000410008DFF48029E493A3F85407240CC8C333D0
:10005100C4540F4420C8834004F456800146F6DF9F
:10006100E4800B0102040810204080900113E47E1B
:10007100019360BCA3FF543F30E509541FFEE49394
:10008100A360010ECF54C025E060A840B8E493A35B
:10009100FAE493A3F8E493A3C8C582C8CAC583CA86
:1000A100F0A3C8C582C8CAC583CADFE9DEE780BE3E
:0101360000C8
:00000001FF
