:0B01E300C0F9A4B0999282F88090FF50
:03000300010D00EC
:10017000E4FDFCC3ED9FEC9E5015E4FBFA0BBB00C5
:10018000010AEB647D4A70F50DBD00010C80E4228C
:0C01BF00D291D29000C29000C2910022A8
:0C01CB00C291C29000D29100D29000229C
:0C01D700D29100A2909201C291A20122DC
:0A01EE00D29000D29100C2910022CD
:1001A800E4FEEF25E0FFD29100A290E4334207C2BB
:0701B80091000EBE08EC22CD
:10019000C291E4FEEF339290D29100C291EF25E03C
:0801A000FF0EBE08EFD2902211
:1001210031BF7FA0319031D7920020001E7F0A316C
:100131009031D7920020001331BF7FA1319031D788
:0D014100920020000631A88F0D31EE21CB79
:10014E0031BF7FA0319031D792002000137F0A314A
:10015E009031D79200200008AF0D319031D7920028
:02016E0021CBA3
:1000990075A0FFE4F580758901758CFC758A177563
:1000A900A8827F14FE31703121E50D75F0648490CA
:1000B90001E393F509E50D75F06484E5F075F00A3F
:1000C9008493F50AE50D75F00A84E5F093F50B05BF
:0D00D9000D7F147E003170314ED28C80FE00
:02000B0001E60C
:1000E600C0E0C0D0758CFA758A1775A000E50C14AF
:1000F60060111460182402701D75A0018509800521
:100106000C801375A002850A80050C800975A00471
:0B011600850B80750C00D0D0D0E032CB
:0300000002000DEE
:0C000D00787FE4F6D8FD758120020054D5
:10001900020099E493A3F8E493A34003F68001F264
:1000290008DFF48029E493A3F85407240CC8C333E8
:10003900C4540F4420C8834004F456800146F6DFB7
:10004900E4800B0102040810204080900003E47E44
:10005900019360BCA3FF543F30E509541FFEE493AC
:10006900A360010ECF54C025E060A840B8E493A373
:10007900FAE493A3F8E493A3C8C582C8CAC583CA9E
:10008900F0A3C8C582C8CAC583CADFE9DEE780BE56
:0100060000F9
:00000001FF
