:10048900F3F2F6F4FCF8F9F130313233343536371A
:100499003839496448756D3A202025004F644875FC
:1004A9006D3A202025004F70656E00436C6F7365AF
:1004B90000536574204D6F64653A005365743A20A2
:1004C9002025005374613A20202000533A2020202F
:1004D9000049642048756D6964697479A3BA004F4D
:1004E900642048756D6964697479A3BA00537461AD
:1004F900A3BA005761726E696E67004D6F64653A01
:0105090000F1
:10071A00012A0F010800011A00011B00011D000235
:10072A00170000022C0000012B000524000001051F
:10073A0000061141543A202025061E4D00000000F3
:07074A00000129000131004C
:0D081E00C2A57F0212082BD2A58C807F029C
:10082B00AD071FED600BE4FEEEC394FA50F20E80A1
:01083B00F7C5
:01083C002299
:0C08C600153F153F153F153F153F153F2E
:0108D2002203
:1007D900D2A7D2A61208C6C2A7C2A67F1412082B96
:1007E900D2A7D2A61208C61208C61208C61208C68F
:0307F9000208C62D
:1005E500E4F51CFF7D0220A706AC050DEC70F7E4D1
:1005F500FE1208C61208C61208C61208C630A70C95
:100605000E7D0230A706AC050DEC70F7ED640160B8
:100615000DE51C25E0F51CEE421C0FBF08C6AF1CFE
:0106250022B2
:10062600E4F533FF7D0220A606AC050DEC70F7E479
:10063600FE1208C61208C61208C61208C630A60C54
:100646000E7D0230A606AC050DEC70F7ED64016078
:100656000DE53325E0F533EE42330FBF08C6AF3361
:010666002271
:10050A001207D9D2A720A7317B0220A706AF030B77
:10051A00EF70F77B0230A706AF030BEF70F71205F7
:10052A00E58F301205E58F2E1205E58F341205E5A9
:10053A008F321205E58F2FD2A71207D9D2A620A68D
:10054A00317B0220A606AF030BEF70F77B0230A6C1
:10055A0006AF030BEF70F71206268F0B1206268FD3
:10056A00091206268F0D1206268F0C1206268F0AEE
:02057A00D2A607
:01057C00225C
:0A08DE00AC07C2A312081EC2A52237
:10083D007F2D120851E508F404F51975F00A84901E
:04084D00049193FF80
:0A085100AC07D2A312081EC2A522B4
:10078500C2A5C2A47F381208DE7F0112082B7F0C98
:100795001208DE7F0112082B7F061208DE7F011288
:0C07A500082B7F011208DE7F0102082BE8
:080752007BFF7A0479D47FCA11
:10075A008B3F8A4089411208DEAB3FAA40A9411269
:10076A000701D3940040130541E541700205401486
:0B077A00F9120701FF12085180DF2276
:100016007F0C1208DE7BFF7A04799B7F8012075AD9
:100026007F861208DEE50D120848E50D75F00A8494
:10003600E5F093FF120851E52960030200F5FB7A0B
:100046000079117F8A12075A7F8D1208DEE52A127F
:100056000848E52A75F00A84E5F093FF120851C3B3
:10006600E534950DFFC394324025EF952A4020755F
:1000760008A61207527FCC1208DE7F2D1208519077
:10008600049AE493FF120851900491E402015FE49C
:10009600F5081207527FCC1208DEC3E50864809487
:1000A60080500D12083DE51975F00A84E5F0803C94
:1000B6007F2B120851E50875F00A1206DFFF33950B
:1000C600E0FE74912FF58274043EF583E493FF12EB
:1000D6000851E50875F00A1206DFAFF0EF3395E038
:1000E600FE74912FF58274043EF583E402015F7B72
:1000F600007A00791E7F8A12075A7F8D1208DE1257
:1001060007527FCC1208DEC3E50864809480500D48
:1001160012083DE51975F00A84E5F0803C7F2B1244
:100126000851E50875F00A1206DFFF3395E0FE7404
:10013600912FF58274043EF583E493FF120851E58E
:100146000875F00A1206DFAFF0EF3395E0FE749102
:100156002FF58274043EF583E493FF1208517BFF6A
:100166007A0479A57FC012075A7FC61208DEE534E5
:10017600120848E53475F00A84E5F093FF02085149
:1007B1007BFF7A0479BA7F8312075A7FC71208DE5A
:1007C100E5297009AF11120851AF128007AF1E124F
:0807D1000851AF1F120851226C
:1007FC007BFF7A0479C47F8112075A7F851208DE49
:10080C00E52A120848E52A75F00A84E5F093FF0200
:02081C00085181
:10057D007BFF7A0479CC7F8112075A7F851208DEC2
:10058D00C3E50864809480500D12083DE51975F09F
:10059D000A84E5F0803C7F2B120851E50875F00ABE
:1005AD001206DFFF3395E0FE74912FF58274043E41
:1005BD00F583E493FF120851E50875F00A1206DF82
:1005CD00AFF0EF3395E0FE74912FF58274043EF594
:0805DD0083E493FF1208512290
:1008A600758DFDD28E759850E4F599D2ACD2AF22F3
:100878007F2D12088BE51BF404FF75F00A1206DFC2
:030888002430FF1A
:08088B008F993099FDC29922FA
:06085B007BFF7A0479AF77
:10086100120701FF7001228F993099FDC29974011D
:0708710029F9E43AFA80E9DD
:100186007BFF7A0479DA120861E50D75F00A84249A
:1001960030FF12088BE50D75F00A84E5F02430FF78
:1001A60012088B7F0D12088B7A0479E8120861E534
:1001B6003475F00A842430FF12088BE53475F00A92
:1001C60084E5F02430FF12088B7F0D12088B7A0429
:1001D60079F6120861E529707CC3E534950DFFC3F5
:1001E6009432403DEF952A40387A0479B41208617A
:1001F6007F2812088BC3E51B64809480500A12087E
:1002060078E51BF404FF8007E51B120882E51B75E1
:10021600F00A1206DFAFF0EF2430FF12088B02025D
:10022600C212085B7F2812088BC3E51B648094808A
:10023600500A120878E51BF404FF8007E51B120834
:1002460082E51B75F00A1206DFAFF0EF2430FF12CD
:10025600088B0202C2E50864A670307BFF7A047937
:10026600B41208617F2812088BC3E51B6480948052
:100276005017120878E51BF404FF75F00A1206DF22
:10028600AFF0EF2430FF12088B803112085B7F2815
:1002960012088BC3E51B64809480500A120878E527
:1002A6001BF404FF8007E51B120882E51B75F00AA4
:1002B6001206DFAFF0EF2430FF12088B7F291208F9
:0902C6008B7F0D12088B02088BDE
:0B08D300D2A8D2AAD288D28AD2AF22CB
:1008B600758921758C3C758AB0D2A9D2AFD28C22AB
:1002CF00E4F50EF510F50FF5311207851208D3126C
:1002DF0008B61208A675B80720B41430B4FD05315E
:1002EF00E531D394034003E4F5317F011208DEE5D5
:1002FF003160030203AE12050A120016D3E51894FB
:10030F0028E51794004008E4F517F518120186C385
:10031F00E51B6480F8E508648098503BE510B40154
:10032F000D85081AC3E51B9508F50FE4F510E50FC9
:10033F00601C150F151BE50ED394004006E50E1437
:10034F00FF80027F078F0EEF90048993F590E51AD7
:10035F0065086003751001D3E51B6480F8E5086438
:10036F008098403BE510B4010D85081AC3E5089548
:10037F001BF50FE4F510E50F601C150F051BE50EBF
:10038F00C394075006E50E04FF80027F008F0EEF27
:10039F0090048993F590E51A65086003751001E5DF
:1003AF0031B401031207B1E531B402031207FCE5C2
:1003BF0031B4030312057DC3E534950DFFC3952AB0
:1003CF005004D2A0C2A1EFC394324009EF952A4046
:1003DF0004C2A0D2A1EFC3943240030202E7EFC3DD
:0E03EF00952A50030202E7D2A0D2A10202E733
:030003000206678B
:10066700C0E0C0D0C2AF30B2FDE531B40103752997
:1006770000E531B4020C152AE52AD394015003751D
:100687002A01E531B4030E1508D3E50864809426E2
:0C06970050037508A6D2AFD0D0D0E032DE
:030013000206A33F
:1006A300C0E0C0D0C2AF30B3FDE531B4010375295A
:1006B30001E531B4020C052AE52AC39463400375AE
:1006C3002A63E531B4030E0508C3E508648094DAB0
:0C06D300400375085AD2AFD0D0D0E032FE
:03000B0002089355
:10089300C0E0758C3C758AB00518E5187002051721
:0308A300D0E03270
:030000000203FDFB
:0C03FD00787FE4F6D8FD758141020444CD
:1006DF00C2D530F707B2D563F0FF05F030E70CB2A3
:1006EF00D5F4048463F0FF05F080018430D502F463
:0206FF000422D3
:10070100BB010689828A83E0225002E722BBFE02F6
:09071100E32289828A83E4932229
:100409000202CFE493A3F8E493A34003F68001F238
:1004190008DFF48029E493A3F85407240CC8C333F4
:10042900C4540F4420C8834004F456800146F6DFC3
:10043900E4800B010204081020408090071AE47E32
:10044900019360BCA3FF543F30E509541FFEE493B8
:10045900A360010ECF54C025E060A840B8E493A37F
:10046900FAE493A3F8E493A3C8C582C8CAC583CAAA
:10047900F0A3C8C582C8CAC583CADFE9DEE780BE62
:0107510000A7
:00000001FF
