:10009100FFFF7FF80707F37FFB7F1B00DBFFDBFF21
:1000A100DBFFDBFFDBFFDBFFDDFFEDFFEDFFF1FF43
:1000B100FFFF4384BBBBBBBBA3BB5DB7DDB6DDAEFE
:1000C100DDAEDDAE21B3BBBBBBBB9DBBADBB6384B2
:1000D100FFFF03E0FBDFFBDF0BD86BD6EBD7DBDBEE
:1000E100DBDB9BDBCB13ED776D768D79EDB7F1CF54
:1000F100FFFF0380BBBFB9BF7E807E7F997F6D5FAD
:10010100CDA41EB5BE75DD6CDB6C3B8F3BEFC3E050
:10011100E4FDFCC3ED9FEC9E5015E4FBFA0BBB0024
:10012100010AEB64144A70F50DBD00010C80E42254
:10013100E4FEEF339292C290EF25E0FFD2900EBE23
:0301410008F022A1
:10000300C2A3C2A7E4F508E4F509E4F9C29175F0C7
:1000130020E508A4F58285F08375F002E93150E507
:10002300822492F582E5833400F583E493FF313132
:1000330075F020E508A4F58285F08375F002E931B7
:1000430050E5822491F582E5833400F583E493FF40
:100053003131D291E9C39408500689A0D2A3800A12
:10006300E924F8C454F0F5A0D2A77F047E0031112F
:10007300C2A3C2A709B910940509E509C394324084
:0E008300890508E508C394045002010A01072C
:03000000020144B6
:0C014400787FE4F6D8FD75810902000305
:0C015000A42582F582E5F03583F58322BA
:00000001FF
