:1000030057494E44574159004120474F4F44204ED2
:10001300455753007777772E697370646F776E2E29
:10002300636F6D00697370646F776E403231636E16
:050033002E636F6D005B
:0F00C7007FB07E15EF1FAC0670011E4C70F62245
:100081007D05AC051DEC60107E1C7F65EF1FAA0687
:0900910070011E4A60EC80F422AB
:0500F800750BFF01C7BC
:0B00E200AD0711F890CFFFEDF001C753
:0B00ED00AD0711F890DFFFEDF001C738
:1000B3007F3011E27F3811E27F0C11E27F0111E200
:0400C3007F0601E2D1
:100038008B088A09890A11E2AB08AA09A90A119A48
:10004800D394004013050AE50A7002050914F91152
:090058009AFF11ED118180E022F4
:1000610011B311817BFF7A0079037F8411387BFF03
:100071007A00790B7FC2113811817F0111E2018170
:030000000200D625
:0C00D600787FE4F6D8FD75810B02006114
:10009A00BB010689828A83E0225002E722BBFE0264
:0900AA00E32289828A83E4932297
:00000001FF
