:0B000F00C0F9A4B0999282F880900123
:0B000300020B000002090000010800D1
:10001D00758915E4F58CF58A758D4CF58BD28CD2DE
:10002D008E75A888E4F5A0AE09AF0AFC7D64315346
:10003D00740F2FF58274003EF583E493F58075A05F
:10004D0001E4FFFE0FBF00010EEF64644E70F5E496
:10005D00F5A0AE09AF0AFC7D6431537E007F0ACF57
:10006D00CDCFCECCCE3153740F2FF58274003EF52B
:10007D0083E493F58075A002E4FEFF0FBF00010E2F
:10008D00EF64644E70F5E4F5A0AE09AF0AFC7D0A8D
:10009D003153740F2DF58274003CF583E493F58094
:1000AD0075A004E4FEFFC3EF9464EE648094804079
:0A00BD000201310FBF00010E80ECBC
:02001B0021A81A
:1001A800C0E0C0D075D000C005C007050CE50C70D4
:1001B80002050B758D4C758B000508E508B4141EF7
:1001C800750800AF8CEFAD8AF50BEDF50C850B09C2
:1001D800F50A750B00750C00758C00758A00D00740
:0701E800D005D0D0D0E032B9
:030000000200C734
:0C00C700787FE4F6D8FD75810C02010E74
:10015300BC000BBE0029EF8DF084FFADF022E4CC90
:10016300F875F008EF2FFFEE33FEEC33FCEE9DEC59
:10017300984005FCEE9DFE0FD5F0E9E4CEFD22ED9F
:10018300F8F5F0EE8420D21CFEADF075F008EF2FE9
:10019300FFED33FD4007985006D5F0F222C398FDDA
:0501A3000FD5F0EA2277
:1000D30002001DE493A3F8E493A34003F68001F226
:1000E30008DFF48029E493A3F85407240CC8C3332E
:1000F300C4540F4420C8834004F456800146F6DFFD
:10010300E4800B0102040810204080900003E47E89
:10011300019360BCA3FF543F30E509541FFEE493F1
:10012300A360010ECF54C025E060A840B8E493A3B8
:10013300FAE493A3F8E493A3C8C582C8CAC583CAE3
:10014300F0A3C8C582C8CAC583CADFE9DEE780BE9B
:01000E0000F1
:00000001FF
