:03000300010900F0
:10009900D200758902758CF1758AF1D28CD2A9D2F8
:1000A900AFD280E4FFFE0FBF00010EBE75F8BF306E
:1000B900F5300004050980021509E509C3940A40D1
:0B00C90002C200E50970DCD20080D804
:02000B0001D41E
:1000D400C0E0C0D00508E508B40A05750800C28070
:0C00E400E509B50802D280D0D0D0E0328F
:0300000002000DEE
:0C000D00787FE4F6D8FD758120020054D5
:10001900020099E493A3F8E493A34003F68001F264
:1000290008DFF48029E493A3F85407240CC8C333E8
:10003900C4540F4420C8834004F456800146F6DFB7
:10004900E4800B0102040810204080900003E47E44
:10005900019360BCA3FF543F30E509541FFEE493AC
:10006900A360010ECF54C025E060A840B8E493A373
:10007900FAE493A3F8E493A3C8C582C8CAC583CA9E
:10008900F0A3C8C582C8CAC583CADFE9DEE780BE56
:0100060000F9
:00000001FF
