:1000CA0057494E44574159004120474F4F44204E0B
:0400DA004557530033
:10002C0011B47BFF7A0079CA7F8411037BFF7A00BD
:10003C0079D27FC2110312004E7F01118612004E3D
:02004C0080E052
:04004E007F647E004D
:100052007DFAD3EF9400EE9400400FDDFE7DF9DDD2
:0B006200FE7DFAEF1F70EB1E80E8220D
:1000DE00C2A2C2A0D2A1D2A2AF80EF20E7F2C2A2EA
:0100EE0022EF
:10008600AE0711DEC2A2C2A0C2A18E80D2A200C259
:07009600A27F017E00015270
:10009D00AE0711DEC2A2D2A0C2A18E80D2A200C232
:0700AD00A27F017E00015259
:1000B4007F3811867F0C11867F0611867F01118699
:0600C4007F017E000152E5
:100003008B088A09890A1186AB08AA09A90A116D06
:10001300D394004013050AE50A7002050914F91187
:090023006DFF119D114E80E022D9
:030000000200EF0C
:0C00EF00787FE4F6D8FD75810A02002C31
:10006D00BB010689828A83E0225002E722BBFE0291
:09007D00E32289828A83E49322C4
:00000001FF
