:10013C00205757572E57494E445741592E434E205E
:10014C00005761697420666F7220495220696E2EC7
:10015C002E002020495220444154412E2E2E00C006
:10016C00F9A4B0999282F880908883C6A1868E0FEC
:03017C000F0B075F
:0901B700EB93FF51467F017E002D
:1001C000D3EF9400EE940040147D717C00ED1D701F
:0E01D000011CED4C70F7EF1F70E61E80E3225D
:10023400C2A0C2A28F80D2A231BCC2A27F017E0022
:0202440021C0D7
:10024600D2A0C2A28F80D2A231BCC2A27F017E0000
:0202560021C0C5
:10017F00C2A1C2A27F3851347F0C51347F06513453
:10018F007F0151347F805134E4FB90013C1201B761
:10019F000BBB0FF67FC05134E4FB90014D1201B73A
:0801AF000BBB10F6758910224C
:1000EF00AB07E519701605197F0151347F80513424
:1000FF00E4FAEA90015E31B80ABA0CF67FC65134C1
:10010F00EBC4540FFED39409EE40052437FF800350
:10011F002430FF51467FC75134EB540FFED394095F
:0D012F00EE40052437FF80032430FF4146D9
:1001DE00E4F58BF58DD28E20B405E58D30E7F8C2AF
:1001EE008EAF8DEFFEAD8B7C00E42DFFEC3EFE223C
:1001FE00E4F58BF58DD28E30B405E58D30E7F8C27F
:10020E008EAF8DEFFEAD8B7C00E42DFFEC3EFE221B
:10000300317F20B4FD31DE8E158F16E4FCFD7B9924
:100013007A1EF9F8D3511E50E9AE15AF16E4FCFD74
:100023007B337A22F8C3511E40D831FE8E158F16CA
:10003300E4FCFD7B667A0EF9F8D3511E50C4AE156D
:10004300AF16E4FCFDFB7A12F8C3511E40B4E4F58D
:1000530017C3E51764809484400201E9E4F518C3EB
:10006300E51864809488507A31DE8E158F16E4FC8F
:10007300FD7BB8FAF9F8D3511E5087AE15AF16E4DD
:10008300FCFD7BE17A02F8C3511E5002010531FEEB
:100093008E158F16E4FCFD7BB8FAF9F8D3511E4098
:1000A300020105AE15AF16E4FCFD7B337A07F8C3F6
:1000B300511E5002010574102517F8C000E6C31342
:1000C300D000F6AE15AF16E4FCFD7B087A04F9F810
:1000D300C3511E500974102517F8E64480F605181D
:0C00E300016205170154AF1211EF010576
:03000000020258A1
:0C025800787FE4F6D8FD758119020003E0
:10021E00EB9FF5F0EA9E42F0E99D42F0EC6480C857
:06022E0064809845F022F7
:00000001FF
