:1001A8000000000000000000000000000000000047
:1001B8000000000000000000000000000000000037
:1001C800080208440FA8F81008680F86000001000C
:1001D8004102410147FE4900510061000100000051
:1001E8000000000000000000000000000000000007
:1001F80000000000000000000000000000000000F7
:1002080000000000000000000000000000000000E6
:1002180000000000000000000000000000000000D6
:10022800080208440FA8F81008680F8600000100AB
:100238004102410147FE49005100610001000000F0
:1002480000000000000000000000000000000000A6
:100258000000000000000000000000000000000096
:06000300010805011201D5
:0403D3007F037E0026
:1003D700D3EF9400EE9400400B7D6EDDFEEF1F70AF
:0403E700EF1E80EC99
:0103EB0022EF
:1003AC00E4FEEF25E0FF9290D292C2920EBE08F2CC
:1003BC00E4FEED25E0FD9290D292C2920EBE08F2C0
:0603CC00C291D291C29122
:0103D2002208
:10037300ED6005D3941F4004E4FEFF22EDD39410F7
:100383005014C374109DFDEFA805088005CEC31358
:10039300CE13D8F9FF22ED24F0FDEFA80508800560
:0903A300C333CE33CED8F9FF229A
:10000E00758901758CD8758AF0D2A9D2AFD28CE5DC
:10001E00122401FFE433FEEF7805C333CE33CED87E
:10002E00F9F50B8E0AE4F509F510F511F50DF50E3F
:10003E00F50FF513F51420B10F7F1E7E001203D7B6
:10004E0020B105B28C30B1FD20B2277F1E7E00128A
:10005E0003D720B21DE4F509631001F513F514E57D
:10006E00107004FEFF8004AE0AAF0B8E0D8F0E30A3
:10007E00B2FD20B61E7F1E7E001203D720B6147569
:10008E000901631101E5117003FF80027F2F8F0FAD
:10009E0030B6FD20B3121203D320B309E508D39472
:1000AE00014002150830B3FD20B4121203D320B460
:1000BE0009E508C3940C5002050830B4FDE509604B
:1000CE0003020155FCC3EC6480949040030200448B
:1000DE008CA0E5107020E50E2514FBE50D3513FA06
:1000EE0074A82BF58274013AF583E493FF74A92B5F
:1000FE00F5827401801EE50E2514FBE50D3513FA0D
:10010E0074082BF58274023AF583E493FF74092B7D
:10011E00F58274023AF583E493FD1203AC1203D315
:10012E00E4FDFF1203AC74022514F514E43513F547
:10013E0013D3E514941EE513648094804005E4F512
:10014E0013F5140C0200D3E4FCC3EC6480949040CD
:10015E0003020044EC25E024C8F582E43401F58363
:10016E00E493751600F515EC25E024C9F582E43408
:10017E0001F583E4934216AD0FAF16AE151203735D
:10018E008E178F188CA0E517FFAD181203AC120353
:0A019E00D3E4FDFF1203AC0C80AFA8
:03000B000202F4FA
:1002F400C0E0C0D0758CD8758AF0050CE50CC395A8
:10030400084067750C00E5097043E510701E74021F
:10031400250EF50EE4350DF50DD3E50E950BE50D23
:10032400950A4046750D00750E00803EC3E50E9497
:1003340002E50D94005008850A0D850B0E802B7480
:10034400FE250EF50E74FF350DF50D801DE51170BB
:100354000E050FE50FD3942F4010750F00800BE5A9
:0F0364000F7005750F2F8002150FD0D0D0E0322B
:0300000002026891
:0C026800787FE4F6D8FD7581180202AF23
:1002740002000EE493A3F8E493A34003F68001F292
:1002840008DFF48029E493A3F85407240CC8C3338B
:10029400C4540F4420C8834004F456800146F6DF5A
:1002A400E4800B0102040810204080900003E47EE7
:1002B400019360BCA3FF543F30E509541FFEE4934F
:1002C400A360010ECF54C025E060A840B8E493A316
:1002D400FAE493A3F8E493A3C8C582C8CAC583CA41
:1002E400F0A3C8C582C8CAC583CADFE9DEE780BEF9
:0100090000F6
:00000001FF
