:0F04F500C0F9A4B0999282F88090FFF1F2F4F868
:1004D600D3EF9400EE94004015E4FDFC0DBD000141
:0F04E6000CED647D4C70F5EF1F70E51E80E22277
:1002CB00907FFF740FF0A2B0B340FB907FFFE0FF75
:1002DB00FCE431B3E4FBFA797F7843310CE4FBFAAD
:1002EB0079FA7843110331E7AB07AA06C3EA940006
:1002FB0050028160D3EB94F4EA940140028160EBED
:10030B0094B8EA94014022D3EB94F4EA9401501987
:10031B00C374F49BFF74019AFE7C007D065168EF59
:10032B002404F50AEE3401F509D3EB9490EA940119
:10033B004025D3EB94B8EA9401501CC374B89BFFCF
:10034B0074019AFEEF7802CEC313CE13D8F9240EA4
:10035B00F50AEE3401F509D3EB9468EA94014025D4
:10036B00D3EB9490EA9401501CC374909BFF7401DF
:10037B009AFEEF7802CEC313CE13D8F92418F50AE0
:10038B00EE3401F509D3EB944AEA94014022D3EB06
:10039B009468EA94015019C374689BFF74019AFE28
:1003AB007C007D035168EF2422F50AEE3401F50938
:1003BB00D3EB942CEA94014022D3EB944AEA9401B8
:1003CB005019C3744A9BFF74019AFE7C007D035144
:1003DB0068EF242CF50AEE3401F509D3EB9418EAF7
:1003EB009401401FD3EB942CEA94015016C374185C
:1003FB009BFF74019AC313FEEF132436F50AEE34F8
:10040B0001F509D3EB9404EA9401401FD3EB941844
:10041B00EA94015016C374189BFF74019AC313FE20
:10042B00EF132440F50AEE3401F509D3EB94F0EA0F
:10043B0094004026D3EB9404EA9401501DC374043A
:10044B009BFF74019AC313FEEF13244AF50AEE3493
:10045B0001F5098005E4F509F50AAE09AF0A7C0040
:10046B007D0A51688D0EAE09AF0A7C007D0A51687A
:10047B007C007D0A51688D0DAE09AF0A7C007D644E
:10048B0051687C007D0A51688D0CAE09AF0A7C0364
:10049B007DE851688F0BE4F508E508C3940440022E
:1004AB0041CB740B2508F8E69004F593F590E5081D
:1004BB00B4020353907FE50890050093F5A07F04E9
:0B04CB007E0091D675A0F0050880CEE1
:10000300EC4D6011E8497017ED33EC3304600DE4F7
:10001300FCFFFEFD22E933E8330470F802025312B9
:10002300021E58046009E4CC2481500628500902BA
:10003300025D28400302025AC0E0EB4A7044B980D3
:1000430006D0E0FB020249EF4E701CBD8008EBFFB7
:10005300EAFEE9FD80EBE98DF0A4FEE5F00200EC99
:10006300E9CDF9EAFEEBFFEF89F0A4FCE5F0CE89D8
:10007300F0A42EFFE435F0CD89F0A42DFEE435F095
:100083008067EF4E7005BD80D780C3EF8BF0A4ACC3
:10009300F0EE8BF0A42CFCE435F0F8EF8AF0A42CFE
:1000A300E5F038FCE433CB8DF0A42CFCE5F03BF811
:1000B300EE8AF0A42CFCE5F038F8E433CF89F0A401
:1000C3002CFCE5F038CF3400CE89F0A42FFFE5F007
:1000D3003EFEE433C98DF0A42EFEE5F039CD8AF05F
:1000E300A42FFFE5F03EFEE43DFD33D0E0FB5007D7
:1000F3000BBB000F02025DEC2CFCEF33FFEE33FE73
:06010300ED33FD020235A0
:1001090002025DEC5D046005E859047003020253C4
:1001190012021E580460F6EC4860F2EC7004FDFE11
:10012900FF22C860DB2481C85009C39860025006C9
:1001390002025A9850CAF582E9294B4A7005AB82E6
:1001490002024975F0007C1A7880C3EF9BEE9AEDA4
:1001590099400DC3EF9BFFEE9AFEED99FDE842F041
:10016900DC23ACF0D0E0FFD0E0FED0E0FDAB822094
:10017900E7101BEB60BAEC2CFCEF33FFEE33FEED1E
:1001890033FD020235E803F830E705C0F075F000E9
:10019900EF2FFFEE33FEED33FD40B830E7C280AA02
:1001A90075F020800E75F010800575F0087D007ED1
:1001B900007F003392D530D5031202BDEC334010D5
:1001C900EF33FFEE33FEED33FDEC33FCD5F0ED22DA
:0E01D900E5F0247EA2D513CC92E7CDCEFF2216
:1001E700EDD2E7CD33EC3392D524814006E4FFFE10
:1001F700FDFC22FCE4CFCECDCC24E0501174FF806F
:10020700EDC3CC13CCCD13CDCE13CECF13CF04700B
:07021700F030D5DE0202BD4C
:10021E00E9D2E7C933E833F892D5EDD2E7CD33EC26
:07022E0033FC5002B2D5229F
:10023500EC30E7100FBF000C0EBE00080DBD00042A
:100245000BEB6014A2D5EB13FCED92E7FD2274FFD6
:10025500FCFDFEFF22E480F8A2D574FF13FC7D802F
:03026500E480EF43
:03000000020504F2
:0C050400787FE4F6D8FD75810E0202CB72
:10026800BC000BBE0029EF8DF084FFADF022E4CC7A
:10027800F875F008EF2FFFEE33FEEC33FCEE9DEC43
:10028800984005FCEE9DFE0FD5F0E9E4CEFD22ED89
:10029800F8F5F0EE8420D21CFEADF075F008EF2FD3
:1002A800FFED33FD4007985006D5F0F222C398FDC4
:0502B8000FD5F0EA2261
:0E02BD00C3E49FFFE49EFEE49DFDE49CFC2252
:00000001FF
