:0B020900C0F9A4B0999282F88090FF29
:0402140002080000DC
:1001A50075A881D2887580FFE4F59090020993F5D2
:1001B5000AF50BF50CF50D850D807590011201EC16
:1001C5007580FF850C807590021201EC7580FF85A6
:1001D5000B8075900431EC7580FF850A8075900859
:0701E50031EC7580FF80D0B2
:020003000105F5
:10000500C0E0C0F0C083C082C0D075D000C000C0C1
:1000150004C005C006C007C2A80509E509700205A8
:1000250008D3940FE5089427400675080075090064
:10003500AE08AF097C037DE8315074092FF5827451
:10004500023EF583E493F50DAE08AF097C037DE828
:1000550031507E007F64CFCDCFCECCCE31507409E8
:100065002FF58274023EF583E493F50CAE08AF09D3
:100075007C007D6431507E007F0ACFCDCFCECCCEC3
:10008500315074092FF58274023EF583E493F50B24
:10009500AE08AF097C007D0A315074092DF58274D4
:1000A500023CF583E493F50AD2A8D007D006D00523
:0F00B500D004D000D0D0D082D083D0F0D0E032B1
:0401EC007F057E000D
:1001F000D3EF9400EE9400400F7DFADDFE7DF9DD33
:09020000FEEF1F70EB1E80E822E6
:030000000200C437
:0C00C400787FE4F6D8FD75810D02010B79
:10015000BC000BBE0029EF8DF084FFADF022E4CC93
:10016000F875F008EF2FFFEE33FEEC33FCEE9DEC5C
:10017000984005FCEE9DFE0FD5F0E9E4CEFD22EDA2
:10018000F8F5F0EE8420D21CFEADF075F008EF2FEC
:10019000FFED33FD4007985006D5F0F222C398FDDD
:0501A0000FD5F0EA227A
:1000D0000201A5E493A3F8E493A34003F68001F2A0
:1000E00008DFF48029E493A3F85407240CC8C33331
:1000F000C4540F4420C8834004F456800146F6DF00
:10010000E4800B0102040810204080900214E47E79
:10011000019360BCA3FF543F30E509541FFEE493F4
:10012000A360010ECF54C025E060A840B8E493A3BB
:10013000FAE493A3F8E493A3C8C582C8CAC583CAE6
:10014000F0A3C8C582C8CAC583CADFE9DEE780BE9E
:0102180000E5
:00000001FF
