:0B039C00C0F9A4B0999282F880900193
:09001100C1000209000001080011
:10001D001103D28CD28E75A8882000024129C2000E
:10002D00D374F7950A7415950940024124E50A9495
:10003D00C4E509941A40024124C3744E950A741AFA
:10004D0095095024E50A94C4E509941A501AE4F56B
:10005D000BC374C4950AFF741A9509FE7C007D0AC2
:10006D0051FF7D7671118F0CC374DA950A74199551
:10007D00095024E50A944EE509941A501A750B019E
:10008D00C3744E950AFF741A9509FE7C007D0A51C2
:10009D00FF7D7471118F0CC37467950A74199509DE
:1000AD005024E50A94DAE5099419501A750B02C328
:1000BD0074DA950AFF74199509FE7C007D0A51FFCB
:1000CD007D7371118F0CC374F4950A7418950950D2
:1000DD0024E50A9467E5099419501A750B03C37446
:1000ED0067950AFF74199509FE7C007D0A51FF7D05
:1000FD007371118F0CC3747F950A74189509502470
:10010D00E50A94F4E5099418501A750B04C374F4B8
:10011D00950AFF74189509FE7C007D0A51FF7D75C7
:10012D0071118F0CC37408950A741895095024E544
:10013D000A947FE5099418501A750B05C3747F95C1
:10014D000AFF74189509FE7C007D0A51FF7D7771B9
:10015D00118F0CC3748D950A741795095024E50AF7
:10016D009408E5099418501A750B06C37408950A7E
:10017D00FF74189509FE7C007D0A51FF7D7B71117E
:10018D008F0CC3740D950A74179509502AE50A94BE
:10019D008DE50994175020750B07C3748D950AFFD3
:1001AD0074179509FE7C007D0A51FFEF7807CEC3C9
:1001BD0013CE13D8F9F50CC37486950A74169509E8
:1001CD005024E50A940DE5099417501A750B08C3D0
:1001DD00740D950AFF74179509FE7C007D0A51FF79
:1001ED007D8771118F0CC374F7950A74159509509D
:1001FD002BE50A9486E50994165021750B09C374F5
:10020D0086950AFF74169509FE7C007D0A51FF7DC7
:10021D008F71118F0C8005E4F50BF50CE50B75F066
:10022D000AA4250CFF75F00A8490039C93F5807544
:10023D009001E4FDFC0DBD00010CBC03F8BDE8F51B
:10024D007580FFEF75F00A84E5F090039C93F580BF
:10025D00759002E4FCFD0DBD00010CBC03F8BDE87A
:06026D00F57580FF01267B
:02001B0061661C
:10036600C0E0C0D075D000C005C007758D4C758B38
:10037600000508E508B41415750800AF8CEFAD8AC2
:10038600F509EDF50A758C00758A00D200D007D004
:0603960005D0D0D0E032DA
:0E000300758915E4F58CF58A758D4CF58B2208
:0300000002027386
:0C027300787FE4F6D8FD7581200202BA05
:1002FF00EF8DF0A4A8F0CF8CF0A428CE8DF0A42E13
:02030F00FE22CC
:10031100BC000BBE0029EF8DF084FFADF022E4CCD0
:10032100F875F008EF2FFFEE33FEEC33FCEE9DEC99
:10033100984005FCEE9DFE0FD5F0E9E4CEFD22EDDF
:10034100F8F5F0EE8420D21CFEADF075F008EF2F29
:10035100FFED33FD4007985006D5F0F222C398FD1A
:050361000FD5F0EA22B7
:10027F0002001DE493A3F8E493A34003F68001F278
:10028F0008DFF48029E493A3F85407240CC8C33380
:10029F00C4540F4420C8834004F456800146F6DF4F
:1002AF00E4800B0102040810204080900011E47ECE
:1002BF00019360BCA3FF543F30E509541FFEE49344
:1002CF00A360010ECF54C025E060A840B8E493A30B
:1002DF00FAE493A3F8E493A3C8C582C8CAC583CA36
:1002EF00F0A3C8C582C8CAC583CADFE9DEE780BEEE
:01001A0000E5
:00000001FF
