:0701FE0050592331070711DE
:10018900311A7BFF7A0179FE11D27B007A00790856
:0601990011F7110380F4D0
:1001C300EF7F08A2E09292D291C291C313DFF4228F
:1001D3007F08C313A29292E7D291C291DFF4FF2268
:10019F00AE05C290C291D29031C3AF0631C3D29196
:0301AF00C29022D9
:0F01E300C290C291D29031C331D3D291C2902237
:1000D200751380E4FD7F8E319F7C07116AFDAF139B
:1000E200319F740129F9E43AFA05130513DCECE4B3
:0500F200FD7F8E219F3F
:1000F7008B138A1489157E81E4FDAF0631E3AB13B8
:10010700AA14A9158D82758300EF11830E0E0DBDFC
:0301170008E822D3
:100157007DFAD3EF9400EE9400400FDDFE7DF9DDCC
:0B016700FE7DFAEF1F70EB1E80E82207
:1001B200C2A2C2A0D2A1D2A2AF80EF20E7F2C2A215
:0101C200221A
:10017200AE0731B2C2A2C2A0C2A18E80D2A200C278
:07018200A27F0A7E00215755
:06013A00C4540F2430FF45
:10014000AE0731B2C2A2D2A0C2A18E80D2A200C29A
:07015000A27F0A7E00215787
:10011A007F017E0031577F3031727F3831727F0C18
:10012A0031727F0631727F0131727F0A7E00215758
:1000A5008B108A1189123172AB10AA11A912116A2B
:1000B500D3940040170512E5127002051114F911C9
:0D00C5006AFF31407F647E00315780DC22ED
:100003007F843172E50E12013AE50E313B7F2D31CB
:10001300407F873172E50C12013AE50C313B7F2DAD
:1000230031407F8A3172E50B313AE50B313B7FC1B9
:100033003172E50D313B7FC43172E50A313AE50A8D
:10004300313B7F2D31407FC73172E509313AE509F4
:10005300313B7F2D31407FCA3172E508313AE508E3
:07006300540F2430FF21407F
:030000000201F208
:0C01F200787FE4F6D8FD758115020189C4
:10006A00BB010689828A83E0225002E722BBFE0294
:09007A00E32289828A83E49322C7
:10008300F8BB010DE58229F582E5833AF583E8F0B3
:10009300225006E92582C8F622BBFE05E92582C85F
:0200A300F22247
:00000001FF
