:10000E0000000000000000000000000000000000E2
:10001E0000000000000000000000000000000000D2
:10002E00000800081FC892485248324812481FFF65
:10003E0012483248524892481FC800080008000073
:10004E000000000100067FF8044004400440044014
:10005E000440FC40047F0400040004000000000083
:10006E00082008C00B00FFFF090008C100067FF83A
:10007E004000400040007FFC00020002001E000015
:10008E000200420033FC0008001000447F48495033
:10009E0049607FFF496049507F48004400040000DA
:1000AE002410246025807FFFC480446000027C926F
:1000BE004492449244FE449244927C920082000008
:1000CE0002000200420033FC00090211050279C24F
:1000DE004134410841147962058204010401000093
:1000EE0002000200420033FE000402080200020079
:1000FE000200FFFF020002000200020002000000E8
:10010E0000000000000000000000000000000000E1
:10011E0000000000000000000000000000000000D1
:10012E0000000000000000000000000000000000C1
:10013E0000000000000000000000000000000000B1
:10014E0002000200420033FE000402080200020018
:10015E000200FFFF02000200020002000200000087
:10016E0002000200420033FC00090211050279C2AE
:10017E0041344108411479620582040104010000F2
:10018E002410246025807FFFC480446000027C928E
:10019E004492449244FE449244927C920082000027
:1001AE000200420033FC0008001000447F48495012
:1001BE0049607FFF496049507F48004400040000B9
:1001CE00082008C00B00FFFF090008C100067FF8D9
:1001DE004000400040007FFC00020002001E0000B4
:1001EE000000000100067FF8044004400440044073
:1001FE000440FC40047F04000400040000000000E2
:10020E00000800081FC892485248324812481FFF83
:10021E0012483248524892481FC800080008000091
:10022E0000000000000000000000000000000000C0
:10023E0000000000000000000000000000000000B0
:06000300010805010F07D2
:040474007F037E0084
:10047800D3EF9400EE9400400B7D6EDDFEEF1F700D
:04048800EF1E80ECF7
:01048C00224D
:060447003CF583E493FD87
:10044D00E4FEEF25E0FF9290D292C2920EBE08F22A
:10045D00E4FEED25E0FD9290D292C2920EBE08F21E
:06046D00C291D291C29180
:010473002266
:10024E00758901758CD8758AF0D2A9D2AFD28CE59A
:10025E000F2401FFE433FEEF7805C333CE33CED83F
:10026E00F9F50A8E0920B10F7F1E7E001204782048
:10027E00B105B28C30B1FD20B22E7F1E7E0012046D
:10028E007820B224050EE50EC394024003E4F50E69
:10029E00E4FBE50E7004F50CF50DE50EB4010685D4
:1002AE00090C850A0D30B2FD20B31512047420B36B
:1002BE000C1508E508D39401500375080130B3FD01
:1002CE0020B41512047420B40C0508E508C3940C70
:1002DE00400375080C30B4FDE4FAC3EA64809490D0
:1002EE0050838AA0E50E7025EBFF3395E0FEE50DF9
:1002FE002FFDE50C3EFC740E2DF58274003CF5834B
:10030E00E493FF740F2DF5827400120447E50EB4CA
:10031E000125EBFF3395E0FEE50D2FFDE50C3EFCD0
:10032E00742E2DF58274013CF583E493FF742F2D0A
:10033E00F5827401120447120474E4FDFF12044D99
:10034E000B0BD3EB6480949E4002E4FB0A0202E89E
:03000B000203EA03
:1003EA00C0E0C0D0758CD8758AF0050BE50BC395B3
:1003FA00084045750B00E50E701C7402250DF50DBD
:10040A00E4350CF50CD3E50D950AE50C9509400683
:10041A00750C00750D00E50EB4011D74FE250DF571
:10042A000D74FF350CF50CC3E50D9402E50C940030
:0D043A00500685090C850A0DD0D0D0E032A7
:0300000002035E9A
:0C035E00787FE4F6D8FD75810F0203A53E
:10036A0002024EE493A3F8E493A34003F68001F259
:10037A0008DFF48029E493A3F85407240CC8C33394
:10038A00C4540F4420C8834004F456800146F6DF63
:10039A00E4800B0102040810204080900003E47EF0
:1003AA00019360BCA3FF543F30E509541FFEE49358
:1003BA00A360010ECF54C025E060A840B8E493A31F
:1003CA00FAE493A3F8E493A3C8C582C8CAC583CA4A
:1003DA00F0A3C8C582C8CAC583CADFE9DEE780BE02
:0100090000F6
:00000001FF
