:10008200C0F9A4B0999282F880908883C6A1868E26
:10007000D2A01103EF641060F9EF90008293F58035
:0200800080F00E
:10005700D3EF9400EE9400400F7DFADDFE7DF9DDCD
:09006700FEEF1F70EB1E80E82281
:1000030079107590F0E59054F064F06044E4FC746A
:1000130001A804088002C333D8FCF4F590E4FBAADA
:1000230090EB2404FFEAA807088002C313D8FCFA64
:1000330020E0137F0A7E001157EA20E009EC25E057
:1000430025E02BF980040BBB04D5B910040CBC04C8
:04005300BEAF012219
:0300000002009269
:0C009200787FE4F6D8FD7581070200704D
:00000001FF
