:1001E200C0F9A4B0999282F880908883C6A1868EC5
:03020100011000E9
:10017C00E4FDFCC3ED9FEC9E5015E4FBFA0BBB00B9
:0F018C00010AEB64724A70F50DBD00010C80E4AE
:01019B002241
:1001BC00D2A1120000D2A0120000C2A1120000C2F3
:0401CC00A00200008D
:0F01F200C2A1120000D2A0120000D2A102000090
:1001D000EF24FF92A1120000D2A0120000C2A002E0
:0201E00000001D
:0200D6008F0E8B
:1000D800E4F50FE50E30E703D38001C392A1E50EE6
:1000E80025E0F50E120000D2A0120000C2A01200F6
:0F00F80000050FE50FC3940840D97F010201D026
:10010700E4F50FD2A1F50ED2A0120000E50F25E00D
:10011700F50F30A103430F01C2A0120000050EE541
:080127000EC3940840E1AF0F84
:01012F0022AD
:10019C008F0C8D0D1201BC7FA01200D6AF0C12007B
:1001AC00D6AF0D1200D61201F27F057E0002017C43
:020130008F0C32
:100132001201BC7FA01200D6AF0C1200D61201BC75
:100142007FA11200D61201078F0D7F011201D0127A
:0401520001F2AF0DFA
:010156002286
:100157007580FFC290C291E510700DED9001E2939A
:10016700F580D29175100122EF9001E293F580D2CC
:0401770090E4F5100B
:01017B002261
:10008F00E4F50AF50B7580FFF5907D587F07120197
:10009F009C050BE50B7002050AC394F4E50A940165
:1000AF004015E4F50AF50B7F07120130EF540FF5F9
:1000BF0008EFC4540FF509AD09AF081201577F01BE
:0700CF007E0012017C80CAD3
:03000000020003F8
:0C000300787FE4F6D8FD75811002004AF9
:10000F0002008FE493A3F8E493A34003F68001F278
:10001F0008DFF48029E493A3F85407240CC8C333F2
:10002F00C4540F4420C8834004F456800146F6DFC1
:10003F00E4800B0102040810204080900201E47E4E
:10004F00019360BCA3FF543F30E509541FFEE493B6
:10005F00A360010ECF54C025E060A840B8E493A37D
:10006F00FAE493A3F8E493A3C8C582C8CAC583CAA8
:10007F00F0A3C8C582C8CAC583CADFE9DEE780BE60
:0102040000F9
:00000001FF
