:100003003F065B4F666D7D077F6F777C395E797145
:10001300C0F9A4B0999282F880908883C6A1868E95
:0A03990001210005325253323332C5
:1003250012029CF5409000011202B5F541900002C1
:100335001202B5F5429000031202B5F54390000490
:0C0345001202B5F544752B018540992289
:10037500D3EF9400EE9400400DE4FD0DBD1BFCEFA2
:060385001F70ED1E80EA6E
:01038B00224F
:0C038C00150E150E150E150E150E150E93
:010398002242
:1002E200E4FF752A0220A007AE2A052AEE70F61254
:1002F200038C12038C12038CE4F52F30A003752FAC
:1003020001752A0230A007AE2A052AEE70F6E52A08
:100312006401600EE53A25E0F53AE52F423A0FBF57
:0203220008C011
:0103240022B6
:10014A00C2A07FB47E00120375D2A012038C1203E0
:10015A008C12038C12038CD2A020A056752A02207E
:10016A00A007AF2A052AEF70F6752A0230A007AF5A
:10017A002A052AEF70F61202E2853A371202E28560
:10018A003A381202E2853A241202E2853A2512022C
:10019A00E2853A2ED2A0E524252525372538F52FE4
:1001AA00B52E0F853730853831852422852523855C
:0301BA002E2C22C6
:040351007F027E00A9
:10035500E4FDFCC3ED9FEC9E5015E4FBFA0BBB00DE
:0F036500010AEB64784A70F50DBD00010C80E4CD
:010374002266
:10020800EFC4540FFEEF540FF9439003AF06EF907D
:10021800000393FF3000047E8080027E00EF4EF5DD
:10022800805390FE120351439001439003E99000DC
:100238000393FF3000047E8080027E00EF4EF5803D
:090248005390FD12035143900292
:01025100228A
:10025200EFC4540FFEEF540FF95390F3AF06EF9033
:10026200001393FF3000047E7F80027EFFEF5EF575
:10027200804390041203515390FB5390F3E9900092
:100282001393FF3000047E7F80027EFFEF5EF580D5
:090292004390081203515390F748
:01029B002240
:10002600E4F50AF50B750CFF750DFF758920758DC6
:10003600FD758BFDD28E759850D2ACD2AFC299C2E7
:1000460098FB7A0079321203257F017E0012037530
:1000560012014A8530328531338522348523358530
:100066002C367B007A00793212032585320A8534D4
:100076000BE50AB50C06E50B650D6006850A0C85D1
:100086000B0DE4F508C200AF0A120252C200AF0B14
:100096001202080508E508C394C840E9E4F509E535
:1000A60009C3940A50AAD200AF0A120252D200AF74
:0800B6000B120208050980E7A6
:030023000201BD1A
:0701BD00C0E0C0D075D010B6
:1001C400309912C299E52B6405600A7440252BF816
:1001D400E6F599052B309827AF99743B2521F8A6AD
:1001E400170521C298E521B40515752100853B3218
:0F01F400853C33853D34853E35853F367580002B
:05020300D0D0D0E03274
:030000000200BE3D
:0C00BE00787FE4F6D8FD7581440201054E
:10029C00BB010689828A83E0225002E722BBFE0260
:0902AC00E32289828A83E4932293
:1002B500BB010CE58229F582E5833AF583E02250FE
:1002C50006E92582F8E622BBFE06E92582F8E22248
:0D02D500E58229F582E5833AF583E4932262
:1000CA00020026E493A3F8E493A34003F68001F226
:1000DA0008DFF48029E493A3F85407240CC8C33337
:1000EA00C4540F4420C8834004F456800146F6DF06
:1000FA00E4800B0102040810204080900399E47EFA
:10010A00019360BCA3FF543F30E509541FFEE493FA
:10011A00A360010ECF54C025E060A840B8E493A3C1
:10012A00FAE493A3F8E493A3C8C582C8CAC583CAEC
:10013A00F0A3C8C582C8CAC583CADFE9DEE780BEA4
:0103A3000059
:00000001FF
