:100387003F065B4F666D7D077F6FC0F9A4B09992FA
:0403970082F88090D8
:0A03A80001210005325253323332B6
:100337001202AEF5409000011202C7F5419000028B
:100347001202C7F5429000031202C7F5439000045A
:0C0357001202C7F544752B018540992265
:10000300D3EF9400EE9400400DE4FD0DBD1BFCEF17
:060013001F70ED1E80EAE3
:0100190022C4
:0C039B00150E150E150E150E150E150E84
:0103A7002233
:1002F400E4FF752A0220A007AE2A052AEE70F61242
:10030400039B12039B12039BE4F52F30A003752F6C
:1003140001752A0230A007AE2A052AEE70F6E52AF6
:100324006401600EE53A25E0F53AE52F423A0FBF45
:0203340008C0FF
:0103360022A4
:10014A00C2A07FB47E00120003D2A012039B120346
:10015A009B12039B12039BD2A020A056752A022051
:10016A00A007AF2A052AEF70F6752A0230A007AF5A
:10017A002A052AEF70F61202F4853A371202F4853C
:10018A003A381202F4853A241202F4853A25120208
:10019A00F4853A2ED2A0E524252525372538F52FD2
:1001AA00B52E0F853730853831852422852523855C
:0301BA002E2C22C6
:040363007F027E0097
:10036700E4FDFCC3ED9FEC9E5015E4FBFA0BBB00CC
:0F037700010AEB64784A70F50DBD00010C80E4BB
:010386002254
:1001BD00EF75F00A8475F00A84AEF0EF75F00A84DD
:1001CD00A9F0439003AF06EF90038793FF3000042F
:1001DD007E8080027E00EF4EF5805390FE12036309
:1001ED00439001439003E990038793FF3000047E11
:1001FD008080027E00EF4EF5805390FD1203634325
:02020D0090025D
:01020F0022CC
:10021000EF75F00A8475F00A84AEF0EF75F00A8489
:10022000A9F05390F3AF06EF90039193FF300004D1
:100230007E7F80027EFFEF5EF580439004120363B1
:100240005390FB5390F3E990039193FF3000047EA9
:100250007F80027EFFEF5EF58043900812036353B8
:0202600090F715
:010262002279
:10002600E4F50AF50B750CFF750DFF758920758DC6
:10003600FD758BFDD28E759850D2ACD2AFC299C2E7
:1000460098FB7A0079321203377F017E0012000393
:1000560012014A8530328531338522348523358530
:100066002C367B007A00793212033785320A8534C2
:100076000BE50AB50C06E50B650D6006850A0C85D1
:100086000B0DE4F508C200AF0A120210C200AF0B56
:100096001201BD0508E508C394C840E9E4F509E581
:1000A60009C3940A50AAD200AF0A120210D200AFB6
:0800B6000B1201BD050980E7F2
:0300230002026373
:07026300C0E0C0D075D0100F
:10026A00309912C299E52B6405600A7440252BF86F
:10027A00E6F599052B309827AF99743B2521F8A606
:10028A00170521C298E521B40515752100853B3271
:0F029A00853C33853D34853E35853F3675800084
:0502A900D0D0D0E032CE
:030000000200BE3D
:0C00BE00787FE4F6D8FD7581440201054E
:1002AE00BB010689828A83E0225002E722BBFE024E
:0902BE00E32289828A83E4932281
:1002C700BB010CE58229F582E5833AF583E02250EC
:1002D70006E92582F8E622BBFE06E92582F8E22236
:0D02E700E58229F582E5833AF583E4932250
:1000CA00020026E493A3F8E493A34003F68001F226
:1000DA0008DFF48029E493A3F85407240CC8C33337
:1000EA00C4540F4420C8834004F456800146F6DF06
:1000FA00E4800B01020408102040809003A8E47EEB
:10010A00019360BCA3FF543F30E509541FFEE493FA
:10011A00A360010ECF54C025E060A840B8E493A3C1
:10012A00FAE493A3F8E493A3C8C582C8CAC583CAEC
:10013A00F0A3C8C582C8CAC583CADFE9DEE780BEA4
:0103B200004A
:00000001FF
